{
  "address": "0x3F99DB1B046e7A74d30C9527565528A2C337825e",
  "abi": [
    {
      "inputs": [
        {
          "internalType": "address",
          "name": "admin_",
          "type": "address"
        },
        {
          "internalType": "address",
          "name": "v1PriceOracle_",
          "type": "address"
        },
        {
          "internalType": "address",
          "name": "registry_",
          "type": "address"
        }
      ],
      "payable": false,
      "stateMutability": "nonpayable",
      "type": "constructor"
    },
    {
      "anonymous": false,
      "inputs": [
        {
          "indexed": false,
          "internalType": "address",
          "name": "tokenAddress",
          "type": "address"
        },
        {
          "indexed": false,
          "internalType": "address",
          "name": "base",
          "type": "address"
        },
        {
          "indexed": false,
          "internalType": "address",
          "name": "quote",
          "type": "address"
        },
        {
          "indexed": false,
          "internalType": "bool",
          "name": "isUsed",
          "type": "bool"
        }
      ],
      "name": "AggregatorUpdated",
      "type": "event"
    },
    {
      "anonymous": false,
      "inputs": [
        {
          "indexed": false,
          "internalType": "address",
          "name": "tokenAddress",
          "type": "address"
        },
        {
          "indexed": false,
          "internalType": "bool",
          "name": "isDeprecated",
          "type": "bool"
        }
      ],
      "name": "DeprecatedMarketUpdated",
      "type": "event"
    },
    {
      "anonymous": false,
      "inputs": [
        {
          "indexed": false,
          "internalType": "address",
          "name": "tokenAddress",
          "type": "address"
        },
        {
          "indexed": false,
          "internalType": "string",
          "name": "symbol",
          "type": "string"
        },
        {
          "indexed": false,
          "internalType": "bool",
          "name": "isUsed",
          "type": "bool"
        }
      ],
      "name": "ReferenceUpdated",
      "type": "event"
    },
    {
      "anonymous": false,
      "inputs": [
        {
          "indexed": false,
          "internalType": "address",
          "name": "admin",
          "type": "address"
        }
      ],
      "name": "SetAdmin",
      "type": "event"
    },
    {
      "anonymous": false,
      "inputs": [
        {
          "indexed": false,
          "internalType": "address",
          "name": "guardian",
          "type": "address"
        }
      ],
      "name": "SetGuardian",
      "type": "event"
    },
    {
      "constant": true,
      "inputs": [],
      "name": "ARS",
      "outputs": [
        {
          "internalType": "address",
          "name": "",
          "type": "address"
        }
      ],
      "payable": false,
      "stateMutability": "view",
      "type": "function"
    },
    {
      "constant": true,
      "inputs": [],
      "name": "AUD",
      "outputs": [
        {
          "internalType": "address",
          "name": "",
          "type": "address"
        }
      ],
      "payable": false,
      "stateMutability": "view",
      "type": "function"
    },
    {
      "constant": true,
      "inputs": [],
      "name": "BRL",
      "outputs": [
        {
          "internalType": "address",
          "name": "",
          "type": "address"
        }
      ],
      "payable": false,
      "stateMutability": "view",
      "type": "function"
    },
    {
      "constant": true,
      "inputs": [],
      "name": "BTC",
      "outputs": [
        {
          "internalType": "address",
          "name": "",
          "type": "address"
        }
      ],
      "payable": false,
      "stateMutability": "view",
      "type": "function"
    },
    {
      "constant": true,
      "inputs": [],
      "name": "CAD",
      "outputs": [
        {
          "internalType": "address",
          "name": "",
          "type": "address"
        }
      ],
      "payable": false,
      "stateMutability": "view",
      "type": "function"
    },
    {
      "constant": true,
      "inputs": [],
      "name": "CHF",
      "outputs": [
        {
          "internalType": "address",
          "name": "",
          "type": "address"
        }
      ],
      "payable": false,
      "stateMutability": "view",
      "type": "function"
    },
    {
      "constant": true,
      "inputs": [],
      "name": "CNY",
      "outputs": [
        {
          "internalType": "address",
          "name": "",
          "type": "address"
        }
      ],
      "payable": false,
      "stateMutability": "view",
      "type": "function"
    },
    {
      "constant": true,
      "inputs": [],
      "name": "ETH",
      "outputs": [
        {
          "internalType": "address",
          "name": "",
          "type": "address"
        }
      ],
      "payable": false,
      "stateMutability": "view",
      "type": "function"
    },
    {
      "constant": true,
      "inputs": [],
      "name": "EUR",
      "outputs": [
        {
          "internalType": "address",
          "name": "",
          "type": "address"
        }
      ],
      "payable": false,
      "stateMutability": "view",
      "type": "function"
    },
    {
      "constant": true,
      "inputs": [],
      "name": "GBP",
      "outputs": [
        {
          "internalType": "address",
          "name": "",
          "type": "address"
        }
      ],
      "payable": false,
      "stateMutability": "view",
      "type": "function"
    },
    {
      "constant": true,
      "inputs": [],
      "name": "INR",
      "outputs": [
        {
          "internalType": "address",
          "name": "",
          "type": "address"
        }
      ],
      "payable": false,
      "stateMutability": "view",
      "type": "function"
    },
    {
      "constant": true,
      "inputs": [],
      "name": "JPY",
      "outputs": [
        {
          "internalType": "address",
          "name": "",
          "type": "address"
        }
      ],
      "payable": false,
      "stateMutability": "view",
      "type": "function"
    },
    {
      "constant": true,
      "inputs": [],
      "name": "KRW",
      "outputs": [
        {
          "internalType": "address",
          "name": "",
          "type": "address"
        }
      ],
      "payable": false,
      "stateMutability": "view",
      "type": "function"
    },
    {
      "constant": true,
      "inputs": [],
      "name": "NGN",
      "outputs": [
        {
          "internalType": "address",
          "name": "",
          "type": "address"
        }
      ],
      "payable": false,
      "stateMutability": "view",
      "type": "function"
    },
    {
      "constant": true,
      "inputs": [],
      "name": "NZD",
      "outputs": [
        {
          "internalType": "address",
          "name": "",
          "type": "address"
        }
      ],
      "payable": false,
      "stateMutability": "view",
      "type": "function"
    },
    {
      "constant": true,
      "inputs": [],
      "name": "PHP",
      "outputs": [
        {
          "internalType": "address",
          "name": "",
          "type": "address"
        }
      ],
      "payable": false,
      "stateMutability": "view",
      "type": "function"
    },
    {
      "constant": true,
      "inputs": [],
      "name": "RUB",
      "outputs": [
        {
          "internalType": "address",
          "name": "",
          "type": "address"
        }
      ],
      "payable": false,
      "stateMutability": "view",
      "type": "function"
    },
    {
      "constant": true,
      "inputs": [],
      "name": "SGD",
      "outputs": [
        {
          "internalType": "address",
          "name": "",
          "type": "address"
        }
      ],
      "payable": false,
      "stateMutability": "view",
      "type": "function"
    },
    {
      "constant": true,
      "inputs": [],
      "name": "USD",
      "outputs": [
        {
          "internalType": "address",
          "name": "",
          "type": "address"
        }
      ],
      "payable": false,
      "stateMutability": "view",
      "type": "function"
    },
    {
      "constant": true,
      "inputs": [],
      "name": "ZAR",
      "outputs": [
        {
          "internalType": "address",
          "name": "",
          "type": "address"
        }
      ],
      "payable": false,
      "stateMutability": "view",
      "type": "function"
    },
    {
      "constant": false,
      "inputs": [
        {
          "internalType": "address",
          "name": "tokenAddress",
          "type": "address"
        }
      ],
      "name": "_disableAggregator",
      "outputs": [],
      "payable": false,
      "stateMutability": "nonpayable",
      "type": "function"
    },
    {
      "constant": false,
      "inputs": [
        {
          "internalType": "address",
          "name": "tokenAddress",
          "type": "address"
        }
      ],
      "name": "_enableAggregator",
      "outputs": [],
      "payable": false,
      "stateMutability": "nonpayable",
      "type": "function"
    },
    {
      "constant": false,
      "inputs": [
        {
          "internalType": "address",
          "name": "_admin",
          "type": "address"
        }
      ],
      "name": "_setAdmin",
      "outputs": [],
      "payable": false,
      "stateMutability": "nonpayable",
      "type": "function"
    },
    {
      "constant": false,
      "inputs": [
        {
          "internalType": "address[]",
          "name": "tokenAddresses",
          "type": "address[]"
        },
        {
          "internalType": "address[]",
          "name": "bases",
          "type": "address[]"
        },
        {
          "internalType": "address[]",
          "name": "quotes",
          "type": "address[]"
        }
      ],
      "name": "_setAggregators",
      "outputs": [],
      "payable": false,
      "stateMutability": "nonpayable",
      "type": "function"
    },
    {
      "constant": false,
      "inputs": [
        {
          "internalType": "address",
          "name": "_guardian",
          "type": "address"
        }
      ],
      "name": "_setGuardian",
      "outputs": [],
      "payable": false,
      "stateMutability": "nonpayable",
      "type": "function"
    },
    {
      "constant": true,
      "inputs": [],
      "name": "admin",
      "outputs": [
        {
          "internalType": "address",
          "name": "",
          "type": "address"
        }
      ],
      "payable": false,
      "stateMutability": "view",
      "type": "function"
    },
    {
      "constant": true,
      "inputs": [
        {
          "internalType": "address",
          "name": "",
          "type": "address"
        }
      ],
      "name": "aggregators",
      "outputs": [
        {
          "internalType": "address",
          "name": "base",
          "type": "address"
        },
        {
          "internalType": "address",
          "name": "quote",
          "type": "address"
        },
        {
          "internalType": "bool",
          "name": "isUsed",
          "type": "bool"
        }
      ],
      "payable": false,
      "stateMutability": "view",
      "type": "function"
    },
    {
      "constant": true,
      "inputs": [
        {
          "internalType": "contract CToken",
          "name": "cToken",
          "type": "address"
        }
      ],
      "name": "getUnderlyingPrice",
      "outputs": [
        {
          "internalType": "uint256",
          "name": "",
          "type": "uint256"
        }
      ],
      "payable": false,
      "stateMutability": "view",
      "type": "function"
    },
    {
      "constant": true,
      "inputs": [],
      "name": "guardian",
      "outputs": [
        {
          "internalType": "address",
          "name": "",
          "type": "address"
        }
      ],
      "payable": false,
      "stateMutability": "view",
      "type": "function"
    },
    {
      "constant": true,
      "inputs": [],
      "name": "reg",
      "outputs": [
        {
          "internalType": "contract FeedRegistryInterface",
          "name": "",
          "type": "address"
        }
      ],
      "payable": false,
      "stateMutability": "view",
      "type": "function"
    },
    {
      "constant": true,
      "inputs": [],
      "name": "stETH",
      "outputs": [
        {
          "internalType": "address",
          "name": "",
          "type": "address"
        }
      ],
      "payable": false,
      "stateMutability": "view",
      "type": "function"
    },
    {
      "constant": true,
      "inputs": [],
      "name": "v1PriceOracle",
      "outputs": [
        {
          "internalType": "contract V1PriceOracleInterface",
          "name": "",
          "type": "address"
        }
      ],
      "payable": false,
      "stateMutability": "view",
      "type": "function"
    },
    {
      "constant": true,
      "inputs": [],
      "name": "wstETH",
      "outputs": [
        {
          "internalType": "address",
          "name": "",
          "type": "address"
        }
      ],
      "payable": false,
      "stateMutability": "view",
      "type": "function"
    }
  ],
  "transactionHash": "0xddd758ddfa4cb553c749bd0e882fc65ead5ad86ca7f0b12d9da2497469173e7e",
  "args": [
    "0xDb204302C9622FFCfEB521932657Cd37A7c3Ca9e",
    "0x408daf8594522CFBE0d419AAc62cF56eB674D6C5",
    "0x47Fb2585D2C56Fe188D0E6ec628a38b74fCeeeDf"
  ],
  "solcInputHash": "39320261752cad91edf8f9717de66c0a",
  "bytecode": "0x60806040523480156200001157600080fd5b5060405162001e2e38038062001e2e83398101604081905262000034916200008a565b600080546001600160a01b039485166001600160a01b0319918216179091556004805493851693821693909317909255600380549190931691161790556200010a565b80516200008481620000f0565b92915050565b600080600060608486031215620000a057600080fd5b6000620000ae868662000077565b9350506020620000c18682870162000077565b9250506040620000d48682870162000077565b9150509250925092565b60006001600160a01b03821662000084565b620000fb81620000de565b81146200010757600080fd5b50565b611d14806200011a6000396000f3fe608060405234801561001057600080fd5b50600436106101fb5760003560e01c80636b09583c1161011a578063c1fe3e48116100ad578063f37fcc421161007c578063f37fcc4214610356578063f851a4401461035e578063fc57d4df14610366578063fd760c4914610386578063fe10c98d1461038e576101fb565b8063c1fe3e481461032b578063ca9d1a7214610333578063e38e8c0f1461033b578063e774928e1461034e576101fb565b8063976d5e77116100e9578063976d5e77146103005780639db2a47214610308578063a4a2359514610310578063ae6a04d414610318576101fb565b80636b09583c146102c85780636dc3bb13146102d0578063738fdd1a146102e35780638322fff2146102f8576101fb565b80632e79477f116101925780634aa07e64116101615780634aa07e641461029d57806353f7c367146102a557806356ef4514146102ad57806359885376146102b5576101fb565b80632e79477f146102705780633a74a76714610278578063452a93201461028d578063465bd0a314610295576101fb565b806319342a64116101ce57806319342a64146102505780631bf6c21b146102585780632792949d14610260578063294a2bf214610268576101fb565b806301b8b3391461020057806303d698f21461021e5780630c01283414610226578063112cdab91461022e575b600080fd5b610208610396565b6040516102159190611a83565b60405180910390f35b61020861039c565b6102086103a2565b61024161023c366004611594565b6103a7565b60405161021593929190611aea565b6102086103d9565b6102086103de565b6102086103e4565b6102086103fc565b610208610402565b61028b610286366004611594565b610408565b005b6102086104bd565b6102086104cc565b6102086104d2565b6102086104ea565b6102086104f0565b61028b6102c3366004611594565b6104f6565b6102086107c9565b61028b6102de366004611594565b6107cf565b6102eb6108bb565b6040516102159190611b1a565b6102086108ca565b6102086108e2565b6102086108e8565b6102086108ee565b61028b6103263660046115d0565b6108f3565b610208610e57565b610208610e6f565b61028b610349366004611594565b610e75565b610208610ef0565b610208610ef6565b610208610efc565b61037961037436600461168f565b610f0b565b6040516102159190611bf9565b6102086111d0565b6102eb6111d5565b61033a81565b61023681565b602081565b600260205260009081526040902080546001909101546001600160a01b0391821691811690600160a01b900460ff1683565b607c81565b61034881565b73bbbbbbbbbbbbbbbbbbbbbbbbbbbbbbbbbbbbbbbb81565b6103d281565b6102be81565b6000546001600160a01b0316331461043b5760405162461bcd60e51b815260040161043290611b49565b60405180910390fd5b6001600160a01b0381166104615760405162461bcd60e51b815260040161043290611bb9565b600080546001600160a01b0319166001600160a01b0383811691909117918290556040517f5a272403b402d892977df56625f4164ccaf70ca3863991c43ecfe76a6905b0a1926104b2921690611a83565b60405180910390a150565b6001546001600160a01b031681565b61018881565b737f39c581f595b53c5cb19bd0b3f8da6c935e2ca081565b61026081565b61019a81565b6000546001600160a01b031633148061051957506001546001600160a01b031633145b6105355760405162461bcd60e51b815260040161043290611bd9565b6001600160a01b03811660009081526002602052604090206001810154600160a01b900460ff16156105795760405162461bcd60e51b815260040161043290611b59565b6003548154600183015460405163d2edb6dd60e01b81526000936001600160a01b039081169363d2edb6dd936105b793918316921690600401611a91565b60206040518083038186803b1580156105cf57600080fd5b505afa1580156105e3573d6000803e3d6000fd5b505050506040513d601f19601f8201168201806040525061060791908101906115b2565b60035460405163b099d43b60e01b81529192506001600160a01b03169063b099d43b90610638908490600401611a83565b60206040518083038186803b15801561065057600080fd5b505afa158015610664573d6000803e3d6000fd5b505050506040513d601f19601f820116820180604052506106889190810190611671565b6106a45760405162461bcd60e51b815260040161043290611b39565b6003548254600184015460405163bcfd032d60e01b81526000936001600160a01b039081169363bcfd032d936106e293918316921690600401611a91565b60a06040518083038186803b1580156106fa57600080fd5b505afa15801561070e573d6000803e3d6000fd5b505050506040513d601f19601f8201168201806040525061073291908101906116cb565b505050915050600081136107585760405162461bcd60e51b815260040161043290611b89565b60018301805460ff60a01b1916600160a01b9081179182905584546040517f1ce411df4a158aa72e588cc62a13841fd7f7e644f81b10b60b90cb97b9017fa7936107bb9389936001600160a01b0390811693908316929190910460ff1690611aac565b60405180910390a150505050565b6103da81565b6000546001600160a01b03163314806107f257506001546001600160a01b031633145b61080e5760405162461bcd60e51b815260040161043290611be9565b6001600160a01b03811660009081526002602052604090206001810154600160a01b900460ff166108515760405162461bcd60e51b815260040161043290611b79565b60018101805460ff60a01b1981169182905582546040517f1ce411df4a158aa72e588cc62a13841fd7f7e644f81b10b60b90cb97b9017fa7936108af9387936001600160a01b0390811693911691600160a01b900460ff1690611aac565b60405180910390a15050565b6003546001600160a01b031681565b73eeeeeeeeeeeeeeeeeeeeeeeeeeeeeeeeeeeeeeee81565b61028381565b6102c681565b609c81565b6000546001600160a01b0316331461091d5760405162461bcd60e51b815260040161043290611b99565b848314801561092b57508481145b6109475760405162461bcd60e51b815260040161043290611b69565b60005b85811015610e4e5760008086868481811061096157fe5b90506020020160206109769190810190611594565b6001600160a01b031614610cac5773bbbbbbbbbbbbbbbbbbbbbbbbbbbbbbbbbbbbbbbb8484848181106109a557fe5b90506020020160206109ba9190810190611594565b6001600160a01b03161480610a0b575073eeeeeeeeeeeeeeeeeeeeeeeeeeeeeeeeeeeeeeee8484848181106109eb57fe5b9050602002016020610a009190810190611594565b6001600160a01b0316145b80610a405750610348848484818110610a2057fe5b9050602002016020610a359190810190611594565b6001600160a01b0316145b610a5c5760405162461bcd60e51b815260040161043290611bc9565b506003546001906000906001600160a01b031663d2edb6dd888886818110610a8057fe5b9050602002016020610a959190810190611594565b878787818110610aa157fe5b9050602002016020610ab69190810190611594565b6040518363ffffffff1660e01b8152600401610ad3929190611a91565b60206040518083038186803b158015610aeb57600080fd5b505afa158015610aff573d6000803e3d6000fd5b505050506040513d601f19601f82011682018060405250610b2391908101906115b2565b60035460405163b099d43b60e01b81529192506001600160a01b03169063b099d43b90610b54908490600401611a83565b60206040518083038186803b158015610b6c57600080fd5b505afa158015610b80573d6000803e3d6000fd5b505050506040513d601f19601f82011682018060405250610ba49190810190611671565b610bc05760405162461bcd60e51b815260040161043290611b39565b6003546000906001600160a01b031663bcfd032d898987818110610be057fe5b9050602002016020610bf59190810190611594565b888888818110610c0157fe5b9050602002016020610c169190810190611594565b6040518363ffffffff1660e01b8152600401610c33929190611a91565b60a06040518083038186803b158015610c4b57600080fd5b505afa158015610c5f573d6000803e3d6000fd5b505050506040513d601f19601f82011682018060405250610c8391908101906116cb565b50505091505060008113610ca95760405162461bcd60e51b815260040161043290611b89565b50505b6040518060600160405280878785818110610cc357fe5b9050602002016020610cd89190810190611594565b6001600160a01b03168152602001858585818110610cf257fe5b9050602002016020610d079190810190611594565b6001600160a01b03168152602001821515815250600260008a8a86818110610d2b57fe5b9050602002016020610d409190810190611594565b6001600160a01b0390811682526020808301939093526040918201600020845181549083166001600160a01b0319918216178255938501516001909101805495909301511515600160a01b0260ff60a01b19919092169490931693909317919091169190911790557f1ce411df4a158aa72e588cc62a13841fd7f7e644f81b10b60b90cb97b9017fa7888884818110610dd557fe5b9050602002016020610dea9190810190611594565b878785818110610df657fe5b9050602002016020610e0b9190810190611594565b868686818110610e1757fe5b9050602002016020610e2c9190810190611594565b84604051610e3d9493929190611aac565b60405180910390a15060010161094a565b50505050505050565b73ae7ab96520de3a18e5e111b5eaab095312d7fe8481565b61022a81565b6000546001600160a01b03163314610e9f5760405162461bcd60e51b815260040161043290611ba9565b600180546001600160a01b0319166001600160a01b0383811691909117918290556040517f31845eceb9cde510c7e8b37f76301c688feb70bc9653aa4c28a3734999840fd8926104b2921690611a83565b61016481565b6102f481565b6000546001600160a01b031681565b600080826001600160a01b0316636f307dc36040518163ffffffff1660e01b815260040160206040518083038186803b158015610f4757600080fd5b505afa158015610f5b573d6000803e3d6000fd5b505050506040513d601f19601f82011682018060405250610f7f91908101906115b2565b90506001600160a01b038116737f39c581f595b53c5cb19bd0b3f8da6c935e2ca01415611084576000610fc873ae7ab96520de3a18e5e111b5eaab095312d7fe846103486111e4565b90506000737f39c581f595b53c5cb19bd0b3f8da6c935e2ca06001600160a01b031663035faf826040518163ffffffff1660e01b815260040160206040518083038186803b15801561101957600080fd5b505afa15801561102d573d6000803e3d6000fd5b505050506040513d601f19601f8201168201806040525061105191908101906116ad565b9050600061106d83604051806020016040528085815250611331565b90506110798185611359565b9450505050506111cb565b6001600160a01b03811660009081526002602052604090206001810154600160a01b900460ff16156111bd57805460018201546000916110d0916001600160a01b0391821691166111e4565b60018301549091506001600160a01b031673eeeeeeeeeeeeeeeeeeeeeeeeeeeeeeeeeeeeeeee141561114057600061111e73eeeeeeeeeeeeeeeeeeeeeeeeeeeeeeeeeeeeeeee6103486111e4565b905061113882604051806020016040528084815250611331565b9150506111a9565b60018201546001600160a01b031673bbbbbbbbbbbbbbbbbbbbbbbbbbbbbbbbbbbbbbbb14156111a957600061118b73bbbbbbbbbbbbbbbbbbbbbbbbbbbbbbbbbbbbbbbb6103486111e4565b90506111a582604051806020016040528084815250611331565b9150505b6111b38184611359565b93505050506111cb565b6111c6826113e2565b925050505b919050565b602481565b6004546001600160a01b031681565b60035460405163bcfd032d60e01b815260009182916001600160a01b039091169063bcfd032d9061121b9087908790600401611a91565b60a06040518083038186803b15801561123357600080fd5b505afa158015611247573d6000803e3d6000fd5b505050506040513d601f19601f8201168201806040525061126b91908101906116cb565b505050915050600081136112915760405162461bcd60e51b815260040161043290611b89565b600354604051630b1c5a7560e31b81526113279183916001600160a01b03909116906358e2d3a8906112c99089908990600401611a91565b60206040518083038186803b1580156112e157600080fd5b505afa1580156112f5573d6000803e3d6000fd5b505050506040513d601f19601f820116820180604052506113199190810190611740565b60ff16601203600a0a611464565b9150505b92915050565b6000670de0b6b3a764000061134a848460000151611464565b8161135157fe5b049392505050565b600080826001600160a01b031663313ce5676040518163ffffffff1660e01b815260040160206040518083038186803b15801561139557600080fd5b505afa1580156113a9573d6000803e3d6000fd5b505050506040513d601f19601f820116820180604052506113cd9190810190611740565b60ff1690506113278482601203600a0a611464565b600480546040516317a6948f60e21b81526000926001600160a01b0390921691635e9a523c9161141491869101611a83565b60206040518083038186803b15801561142c57600080fd5b505afa158015611440573d6000803e3d6000fd5b505050506040513d601f19601f8201168201806040525061132b91908101906116ad565b60006114a683836040518060400160405280601781526020017f6d756c7469706c69636174696f6e206f766572666c6f770000000000000000008152506114ad565b9392505050565b60008315806114ba575082155b156114c7575060006114a6565b838302838582816114d457fe5b041483906114f55760405162461bcd60e51b81526004016104329190611b28565b50949350505050565b803561132b81611c8d565b805161132b81611c8d565b60008083601f84011261152657600080fd5b50813567ffffffffffffffff81111561153e57600080fd5b60208301915083602082028301111561155657600080fd5b9250929050565b805161132b81611ca4565b803561132b81611cad565b805161132b81611cb6565b805161132b81611cc8565b805161132b81611cbf565b6000602082840312156115a657600080fd5b600061132784846114fe565b6000602082840312156115c457600080fd5b60006113278484611509565b600080600080600080606087890312156115e957600080fd5b863567ffffffffffffffff81111561160057600080fd5b61160c89828a01611514565b9650965050602087013567ffffffffffffffff81111561162b57600080fd5b61163789828a01611514565b9450945050604087013567ffffffffffffffff81111561165657600080fd5b61166289828a01611514565b92509250509295509295509295565b60006020828403121561168357600080fd5b6000611327848461155d565b6000602082840312156116a157600080fd5b60006113278484611568565b6000602082840312156116bf57600080fd5b60006113278484611573565b600080600080600060a086880312156116e357600080fd5b60006116ef888861157e565b955050602061170088828901611573565b945050604061171188828901611573565b935050606061172288828901611573565b92505060806117338882890161157e565b9150509295509295909350565b60006020828403121561175257600080fd5b60006113278484611589565b61176781611c14565b82525050565b61176781611c1f565b61176781611c24565b600061178a82611c07565b6117948185611c0b565b93506117a4818560208601611c53565b6117ad81611c83565b9093019392505050565b60006117c4601683611c0b565b751859d9dc9959d85d1bdc881b9bdd08195b98589b195960521b815260200192915050565b60006117f6602083611c0b565b7f6f6e6c79207468652061646d696e206d617920736574206e65772061646d696e815260200192915050565b600061182f601a83611c0b565b7f61676772656761746f7220697320616c72656164792075736564000000000000815260200192915050565b6000611868600f83611c0b565b6e6d69736d617463686564206461746160881b815260200192915050565b6000611893601383611c0b565b721859d9dc9959d85d1bdc881b9bdd081d5cd959606a1b815260200192915050565b60006118c2600d83611c0b565b6c696e76616c696420707269636560981b815260200192915050565b60006118eb602683611c0b565b7f6f6e6c79207468652061646d696e206d617920736574207468652061676772658152656761746f727360d01b602082015260400192915050565b6000611933602383611c0b565b7f6f6e6c79207468652061646d696e206d617920736574206e657720677561726481526234b0b760e91b602082015260400192915050565b6000611978600d83611c0b565b6c34b73b30b634b21030b236b4b760991b815260200192915050565b60006119a1601883611c0b565b7f756e737570706f727465642064656e6f6d696e6174696f6e0000000000000000815260200192915050565b60006119da603483611c0b565b7f6f6e6c79207468652061646d696e206f7220677561726469616e206d617920658152733730b13632903a34329030b3b3b932b3b0ba37b960611b602082015260400192915050565b6000611a30603583611c0b565b7f6f6e6c79207468652061646d696e206f7220677561726469616e206d6179206481527434b9b0b13632903a34329030b3b3b932b3b0ba37b960591b602082015260400192915050565b61176781611c2f565b6020810161132b828461175e565b60408101611a9f828561175e565b6114a6602083018461175e565b60808101611aba828761175e565b611ac7602083018661175e565b611ad4604083018561175e565b611ae1606083018461176d565b95945050505050565b60608101611af8828661175e565b611b05602083018561175e565b611b12604083018461176d565b949350505050565b6020810161132b8284611776565b602080825281016114a6818461177f565b6020808252810161132b816117b7565b6020808252810161132b816117e9565b6020808252810161132b81611822565b6020808252810161132b8161185b565b6020808252810161132b81611886565b6020808252810161132b816118b5565b6020808252810161132b816118de565b6020808252810161132b81611926565b6020808252810161132b8161196b565b6020808252810161132b81611994565b6020808252810161132b816119cd565b6020808252810161132b81611a23565b6020810161132b8284611a7a565b5190565b90815260200190565b600061132b82611c32565b151590565b600061132b82611c14565b90565b6001600160a01b031690565b60ff1690565b69ffffffffffffffffffff1690565b60005b83811015611c6e578181015183820152602001611c56565b83811115611c7d576000848401525b50505050565b601f01601f191690565b611c9681611c14565b8114611ca157600080fd5b50565b611c9681611c1f565b611c9681611c24565b611c9681611c2f565b611c9681611c3e565b611c9681611c4456fea365627a7a72315820d8a785430f6a9076326b6ad7513583a640db84a07ad0e5b4a13856beada34f326c6578706572696d656e74616cf564736f6c63430005110040",
  "devdoc": {
    "methods": {
      "_disableAggregator(address)": {
        "params": {
          "tokenAddress": "The underlying token"
        }
      },
      "_enableAggregator(address)": {
        "params": {
          "tokenAddress": "The underlying token"
        }
      },
      "_setAdmin(address)": {
        "params": {
          "_admin": "The new admin"
        }
      },
      "_setAggregators(address[],address[],address[])": {
        "params": {
          "bases": "The list of ChainLink aggregator bases",
          "quotes": "The list of ChainLink aggregator quotes, currently support 'ETH' and 'USD'",
          "tokenAddresses": "The list of underlying tokens"
        }
      },
      "_setGuardian(address)": {
        "params": {
          "_guardian": "The new guardian"
        }
      },
      "constructor": {
        "params": {
          "admin_": "The address of admin to set aggregators",
          "registry_": "The address of ChainLink registry",
          "v1PriceOracle_": "The v1 price oracle"
        }
      },
      "getUnderlyingPrice(address)": {
        "params": {
          "cToken": "The cToken to get the underlying price of"
        },
        "return": "The underlying asset price mantissa (scaled by 1e18)"
      }
    }
  },
  "userdoc": {
    "methods": {
      "_disableAggregator(address)": {
        "notice": "Disable ChainLink aggregator"
      },
      "_enableAggregator(address)": {
        "notice": "Enable ChainLink aggregator"
      },
      "_setAdmin(address)": {
        "notice": "Set admin for price oracle proxy"
      },
      "_setAggregators(address[],address[],address[])": {
        "notice": "Set ChainLink aggregators for multiple tokens"
      },
      "_setGuardian(address)": {
        "notice": "Set guardian for price oracle proxy"
      },
      "getUnderlyingPrice(address)": {
        "notice": "Get the underlying price of a listed cToken asset"
      }
    }
  },
  "storageLayout": {
    "storage": [
      {
        "astId": 35889,
        "contract": "contracts/pepe-lending/PriceOracle/PriceOracleProxyIB.sol:PriceOracleProxyIB",
        "label": "admin",
        "offset": 0,
        "slot": "0",
        "type": "t_address"
      },
      {
        "astId": 35891,
        "contract": "contracts/pepe-lending/PriceOracle/PriceOracleProxyIB.sol:PriceOracleProxyIB",
        "label": "guardian",
        "offset": 0,
        "slot": "1",
        "type": "t_address"
      },
      {
        "astId": 35902,
        "contract": "contracts/pepe-lending/PriceOracle/PriceOracleProxyIB.sol:PriceOracleProxyIB",
        "label": "aggregators",
        "offset": 0,
        "slot": "2",
        "type": "t_mapping(t_address,t_struct(AggregatorInfo)35898_storage)"
      },
      {
        "astId": 35904,
        "contract": "contracts/pepe-lending/PriceOracle/PriceOracleProxyIB.sol:PriceOracleProxyIB",
        "label": "reg",
        "offset": 0,
        "slot": "3",
        "type": "t_contract(FeedRegistryInterface)36771"
      },
      {
        "astId": 35906,
        "contract": "contracts/pepe-lending/PriceOracle/PriceOracleProxyIB.sol:PriceOracleProxyIB",
        "label": "v1PriceOracle",
        "offset": 0,
        "slot": "4",
        "type": "t_contract(V1PriceOracleInterface)37023"
      }
    ],
    "types": {
      "t_address": {
        "encoding": "inplace",
        "label": "address",
        "numberOfBytes": "20"
      },
      "t_bool": {
        "encoding": "inplace",
        "label": "bool",
        "numberOfBytes": "1"
      },
      "t_contract(FeedRegistryInterface)36771": {
        "encoding": "inplace",
        "label": "contract FeedRegistryInterface",
        "numberOfBytes": "20"
      },
      "t_contract(V1PriceOracleInterface)37023": {
        "encoding": "inplace",
        "label": "contract V1PriceOracleInterface",
        "numberOfBytes": "20"
      },
      "t_mapping(t_address,t_struct(AggregatorInfo)35898_storage)": {
        "encoding": "mapping",
        "key": "t_address",
        "label": "mapping(address => struct PriceOracleProxyIB.AggregatorInfo)",
        "numberOfBytes": "32",
        "value": "t_struct(AggregatorInfo)35898_storage"
      },
      "t_struct(AggregatorInfo)35898_storage": {
        "encoding": "inplace",
        "label": "struct PriceOracleProxyIB.AggregatorInfo",
        "members": [
          {
            "astId": 35893,
            "contract": "contracts/pepe-lending/PriceOracle/PriceOracleProxyIB.sol:PriceOracleProxyIB",
            "label": "base",
            "offset": 0,
            "slot": "0",
            "type": "t_address"
          },
          {
            "astId": 35895,
            "contract": "contracts/pepe-lending/PriceOracle/PriceOracleProxyIB.sol:PriceOracleProxyIB",
            "label": "quote",
            "offset": 0,
            "slot": "1",
            "type": "t_address"
          },
          {
            "astId": 35897,
            "contract": "contracts/pepe-lending/PriceOracle/PriceOracleProxyIB.sol:PriceOracleProxyIB",
            "label": "isUsed",
            "offset": 20,
            "slot": "1",
            "type": "t_bool"
          }
        ],
        "numberOfBytes": "64"
      }
    }
  }
}